{
  "_format": "hh-sol-artifact-1",
  "contractName": "Election",
  "sourceName": "contracts/Election.sol",
  "abi": [
    {
      "inputs": [],
      "stateMutability": "nonpayable",
      "type": "constructor"
    },
    {
      "anonymous": false,
      "inputs": [],
      "name": "AllTrusteesAgreed",
      "type": "event"
    },
    {
      "anonymous": false,
      "inputs": [
        {
          "indexed": false,
          "internalType": "uint256",
          "name": "id",
          "type": "uint256"
        },
        {
          "indexed": false,
          "internalType": "string",
          "name": "name",
          "type": "string"
        }
      ],
      "name": "CandidateAdded",
      "type": "event"
    },
    {
      "anonymous": false,
      "inputs": [
        {
          "indexed": true,
          "internalType": "uint256",
          "name": "candidateId",
          "type": "uint256"
        },
        {
          "indexed": false,
          "internalType": "uint256[2]",
          "name": "C1_total",
          "type": "uint256[2]"
        },
        {
          "indexed": false,
          "internalType": "uint256[2]",
          "name": "C2_total",
          "type": "uint256[2]"
        }
      ],
      "name": "CipherTotalPublished",
      "type": "event"
    },
    {
      "anonymous": false,
      "inputs": [
        {
          "indexed": false,
          "internalType": "string",
          "name": "electionId",
          "type": "string"
        },
        {
          "indexed": false,
          "internalType": "string",
          "name": "name",
          "type": "string"
        }
      ],
      "name": "ElectionCreated",
      "type": "event"
    },
    {
      "anonymous": false,
      "inputs": [
        {
          "indexed": false,
          "internalType": "bytes",
          "name": "epk",
          "type": "bytes"
        }
      ],
      "name": "EpkPublished",
      "type": "event"
    },
    {
      "anonymous": false,
      "inputs": [
        {
          "indexed": false,
          "internalType": "bytes32",
          "name": "hashOnChain",
          "type": "bytes32"
        }
      ],
      "name": "HashOnChainPublished",
      "type": "event"
    },
    {
      "anonymous": false,
      "inputs": [
        {
          "indexed": false,
          "internalType": "bytes32",
          "name": "root",
          "type": "bytes32"
        }
      ],
      "name": "MerkleRootUpdated",
      "type": "event"
    },
    {
      "anonymous": false,
      "inputs": [
        {
          "indexed": false,
          "internalType": "address",
          "name": "trustee",
          "type": "address"
        }
      ],
      "name": "PartialDecryptionFailed",
      "type": "event"
    },
    {
      "anonymous": false,
      "inputs": [
        {
          "indexed": true,
          "internalType": "address",
          "name": "trustee",
          "type": "address"
        },
        {
          "indexed": false,
          "internalType": "uint256[2][]",
          "name": "D_points",
          "type": "uint256[2][]"
        }
      ],
      "name": "PartialDecryptionSubmitted",
      "type": "event"
    },
    {
      "anonymous": false,
      "inputs": [
        {
          "indexed": true,
          "internalType": "address",
          "name": "trustee",
          "type": "address"
        }
      ],
      "name": "PartialDecryptionVerified",
      "type": "event"
    },
    {
      "anonymous": false,
      "inputs": [
        {
          "indexed": false,
          "internalType": "bytes",
          "name": "C_total",
          "type": "bytes"
        },
        {
          "indexed": false,
          "internalType": "bytes32",
          "name": "proofHash",
          "type": "bytes32"
        }
      ],
      "name": "TallySubmitted",
      "type": "event"
    },
    {
      "anonymous": false,
      "inputs": [
        {
          "indexed": true,
          "internalType": "address",
          "name": "trustee",
          "type": "address"
        }
      ],
      "name": "TrusteeRegistered",
      "type": "event"
    },
    {
      "anonymous": false,
      "inputs": [
        {
          "indexed": true,
          "internalType": "bytes32",
          "name": "nullifier",
          "type": "bytes32"
        },
        {
          "indexed": true,
          "internalType": "bytes32",
          "name": "hashCipher",
          "type": "bytes32"
        },
        {
          "indexed": false,
          "internalType": "uint256",
          "name": "timestamp",
          "type": "uint256"
        }
      ],
      "name": "VotePublished",
      "type": "event"
    },
    {
      "inputs": [
        {
          "internalType": "string",
          "name": "_name",
          "type": "string"
        }
      ],
      "name": "addCandidate",
      "outputs": [],
      "stateMutability": "nonpayable",
      "type": "function"
    },
    {
      "inputs": [],
      "name": "admin",
      "outputs": [
        {
          "internalType": "address",
          "name": "",
          "type": "address"
        }
      ],
      "stateMutability": "view",
      "type": "function"
    },
    {
      "inputs": [],
      "name": "aggregator",
      "outputs": [
        {
          "internalType": "address",
          "name": "",
          "type": "address"
        }
      ],
      "stateMutability": "view",
      "type": "function"
    },
    {
      "inputs": [
        {
          "internalType": "uint256",
          "name": "",
          "type": "uint256"
        }
      ],
      "name": "candidates",
      "outputs": [
        {
          "internalType": "uint256",
          "name": "id",
          "type": "uint256"
        },
        {
          "internalType": "string",
          "name": "name",
          "type": "string"
        },
        {
          "internalType": "uint256",
          "name": "voteCount",
          "type": "uint256"
        }
      ],
      "stateMutability": "view",
      "type": "function"
    },
    {
      "inputs": [],
      "name": "epk",
      "outputs": [
        {
          "internalType": "bytes",
          "name": "",
          "type": "bytes"
        }
      ],
      "stateMutability": "view",
      "type": "function"
    },
    {
      "inputs": [],
      "name": "finalCipher",
      "outputs": [
        {
          "internalType": "bytes",
          "name": "",
          "type": "bytes"
        }
      ],
      "stateMutability": "view",
      "type": "function"
    },
    {
      "inputs": [],
      "name": "getCandidateCount",
      "outputs": [
        {
          "internalType": "uint256",
          "name": "",
          "type": "uint256"
        }
      ],
      "stateMutability": "view",
      "type": "function"
    },
    {
      "inputs": [],
      "name": "getNullifierCount",
      "outputs": [
        {
          "internalType": "uint256",
          "name": "",
          "type": "uint256"
        }
      ],
      "stateMutability": "view",
      "type": "function"
    },
    {
      "inputs": [
        {
          "internalType": "address",
          "name": "",
          "type": "address"
        }
      ],
      "name": "hasPublished",
      "outputs": [
        {
          "internalType": "bool",
          "name": "",
          "type": "bool"
        }
      ],
      "stateMutability": "view",
      "type": "function"
    },
    {
      "inputs": [],
      "name": "hashOnChain",
      "outputs": [
        {
          "internalType": "bytes32",
          "name": "",
          "type": "bytes32"
        }
      ],
      "stateMutability": "view",
      "type": "function"
    },
    {
      "inputs": [],
      "name": "info",
      "outputs": [
        {
          "internalType": "string",
          "name": "electionId",
          "type": "string"
        },
        {
          "internalType": "string",
          "name": "name",
          "type": "string"
        },
        {
          "internalType": "string",
          "name": "startDate",
          "type": "string"
        },
        {
          "internalType": "string",
          "name": "endDate",
          "type": "string"
        },
        {
          "internalType": "string",
          "name": "status",
          "type": "string"
        },
        {
          "internalType": "bytes32",
          "name": "merkleRoot",
          "type": "bytes32"
        }
      ],
      "stateMutability": "view",
      "type": "function"
    },
    {
      "inputs": [
        {
          "internalType": "bytes32",
          "name": "",
          "type": "bytes32"
        }
      ],
      "name": "isNullifierUsed",
      "outputs": [
        {
          "internalType": "bool",
          "name": "",
          "type": "bool"
        }
      ],
      "stateMutability": "view",
      "type": "function"
    },
    {
      "inputs": [
        {
          "internalType": "address",
          "name": "",
          "type": "address"
        }
      ],
      "name": "isTrustee",
      "outputs": [
        {
          "internalType": "bool",
          "name": "",
          "type": "bool"
        }
      ],
      "stateMutability": "view",
      "type": "function"
    },
    {
      "inputs": [
        {
          "internalType": "address",
          "name": "",
          "type": "address"
        }
      ],
      "name": "lastVerifyPassed",
      "outputs": [
        {
          "internalType": "bool",
          "name": "",
          "type": "bool"
        }
      ],
      "stateMutability": "view",
      "type": "function"
    },
    {
      "inputs": [],
      "name": "minRequired",
      "outputs": [
        {
          "internalType": "uint256",
          "name": "",
          "type": "uint256"
        }
      ],
      "stateMutability": "view",
      "type": "function"
    },
    {
      "inputs": [
        {
          "internalType": "uint256",
          "name": "",
          "type": "uint256"
        }
      ],
      "name": "nullifiers",
      "outputs": [
        {
          "internalType": "bytes32",
          "name": "",
          "type": "bytes32"
        }
      ],
      "stateMutability": "view",
      "type": "function"
    },
    {
      "inputs": [
        {
          "internalType": "uint256[2][]",
          "name": "C1_list",
          "type": "uint256[2][]"
        },
        {
          "internalType": "uint256[2][]",
          "name": "C2_list",
          "type": "uint256[2][]"
        }
      ],
      "name": "publishAllCipherTotals",
      "outputs": [],
      "stateMutability": "nonpayable",
      "type": "function"
    },
    {
      "inputs": [
        {
          "internalType": "bytes",
          "name": "_epk",
          "type": "bytes"
        }
      ],
      "name": "publishEpk",
      "outputs": [],
      "stateMutability": "nonpayable",
      "type": "function"
    },
    {
      "inputs": [
        {
          "internalType": "bytes32",
          "name": "_hashOnChain",
          "type": "bytes32"
        }
      ],
      "name": "publishHashOnChain",
      "outputs": [],
      "stateMutability": "nonpayable",
      "type": "function"
    },
    {
      "inputs": [
        {
          "internalType": "uint256[2][]",
          "name": "D_points",
          "type": "uint256[2][]"
        }
      ],
      "name": "publishPartialDecryption",
      "outputs": [],
      "stateMutability": "nonpayable",
      "type": "function"
    },
    {
      "inputs": [
        {
          "internalType": "address[3]",
          "name": "_trustees",
          "type": "address[3]"
        }
      ],
      "name": "registerTrustees",
      "outputs": [],
      "stateMutability": "nonpayable",
      "type": "function"
    },
    {
      "inputs": [
        {
          "internalType": "address",
          "name": "_aggregator",
          "type": "address"
        }
      ],
      "name": "setAggregator",
      "outputs": [],
      "stateMutability": "nonpayable",
      "type": "function"
    },
    {
      "inputs": [
        {
          "internalType": "string",
          "name": "_id",
          "type": "string"
        },
        {
          "internalType": "string",
          "name": "_name",
          "type": "string"
        },
        {
          "internalType": "string",
          "name": "_start",
          "type": "string"
        },
        {
          "internalType": "string",
          "name": "_end",
          "type": "string"
        }
      ],
      "name": "setElectionInfo",
      "outputs": [],
      "stateMutability": "nonpayable",
      "type": "function"
    },
    {
      "inputs": [
        {
          "internalType": "bytes32",
          "name": "_root",
          "type": "bytes32"
        }
      ],
      "name": "setMerkleRoot",
      "outputs": [],
      "stateMutability": "nonpayable",
      "type": "function"
    },
    {
      "inputs": [
        {
          "internalType": "bytes",
          "name": "_C_total",
          "type": "bytes"
        },
        {
          "internalType": "bytes32",
          "name": "_proofHash",
          "type": "bytes32"
        }
      ],
      "name": "submitTally",
      "outputs": [],
      "stateMutability": "nonpayable",
      "type": "function"
    },
    {
      "inputs": [
        {
          "internalType": "bytes32",
          "name": "_nullifier",
          "type": "bytes32"
        },
        {
          "internalType": "bytes32",
          "name": "_hashCipher",
          "type": "bytes32"
        }
      ],
      "name": "submitVote",
      "outputs": [],
      "stateMutability": "nonpayable",
      "type": "function"
    },
    {
      "inputs": [],
      "name": "tallyProofHash",
      "outputs": [
        {
          "internalType": "bytes32",
          "name": "",
          "type": "bytes32"
        }
      ],
      "stateMutability": "view",
      "type": "function"
    },
    {
      "inputs": [],
      "name": "thresholdCount",
      "outputs": [
        {
          "internalType": "uint256",
          "name": "",
          "type": "uint256"
        }
      ],
      "stateMutability": "view",
      "type": "function"
    },
    {
      "inputs": [
        {
          "internalType": "address",
          "name": "",
          "type": "address"
        }
      ],
      "name": "trusteeID",
      "outputs": [
        {
          "internalType": "uint256",
          "name": "",
          "type": "uint256"
        }
      ],
      "stateMutability": "view",
      "type": "function"
    },
    {
      "inputs": [
        {
          "internalType": "uint256[2]",
          "name": "pA",
          "type": "uint256[2]"
        },
        {
          "internalType": "uint256[2][2]",
          "name": "pB",
          "type": "uint256[2][2]"
        },
        {
          "internalType": "uint256[2]",
          "name": "pC",
          "type": "uint256[2]"
        },
        {
          "internalType": "uint256[1]",
          "name": "pubSignals",
          "type": "uint256[1]"
        }
      ],
      "name": "verifyPartialProof",
      "outputs": [
        {
          "internalType": "bool",
          "name": "",
          "type": "bool"
        }
      ],
      "stateMutability": "nonpayable",
      "type": "function"
    },
    {
      "inputs": [
        {
          "internalType": "uint256[2]",
          "name": "_pA",
          "type": "uint256[2]"
        },
        {
          "internalType": "uint256[2][2]",
          "name": "_pB",
          "type": "uint256[2][2]"
        },
        {
          "internalType": "uint256[2]",
          "name": "_pC",
          "type": "uint256[2]"
        },
        {
          "internalType": "uint256[1]",
          "name": "_pubSignals",
          "type": "uint256[1]"
        }
      ],
      "name": "verifyProof",
      "outputs": [
        {
          "internalType": "bool",
          "name": "",
          "type": "bool"
        }
      ],
      "stateMutability": "view",
      "type": "function"
    },
    {
      "inputs": [
        {
          "internalType": "bytes32",
          "name": "",
          "type": "bytes32"
        }
      ],
      "name": "votes",
      "outputs": [
        {
          "internalType": "bytes32",
          "name": "nullifier",
          "type": "bytes32"
        },
        {
          "internalType": "bytes32",
          "name": "hashCipher",
          "type": "bytes32"
        },
        {
          "internalType": "uint256",
          "name": "timestamp",
          "type": "uint256"
        }
      ],
      "stateMutability": "view",
      "type": "function"
    }
  ],
  "bytecode": "0x608060405234801561001057600080fd5b50336000806101000a81548173ffffffffffffffffffffffffffffffffffffffff021916908373ffffffffffffffffffffffffffffffffffffffff160217905550613fa6806100606000396000f3fe608060405234801561001057600080fd5b50600436106101f05760003560e01c8063462e91ec1161010f578063b415616e116100a2578063d8617a6711610071578063d8617a67146105d6578063e4475213146105f2578063f851a44014610622578063f9120af614610640576101f0565b8063b415616e1461053c578063baacc5bd1461055a578063c784cd1714610576578063d21e82ab146105a6576101f0565b80637cb64759116100de5780637cb64759146104b4578063872d9e6e146104d0578063ab989f5514610500578063b40e987e1461051e576101f0565b8063462e91ec1461044257806365a1ccc01461045e5780637a5537441461047a5780637c986e2b14610498576101f0565b806329a6e55d116101875780633477ee2e116101565780633477ee2e146103a1578063368f8513146103d3578063370158ea146103ef57806343753b4d14610412576101f0565b806329a6e55d146103035780632b38cd96146103335780632fc760ed1461036557806330a5634714610383576101f0565b80631bdf06f7116101c35780631bdf06f71461027b57806322dc7b4c14610297578063245a7bfc146102c7578063251060d6146102e5576101f0565b80630d2ce376146101f557806310d713ec1461021157806313e26d581461022d57806315aaa8801461024b575b600080fd5b61020f600480360381019061020a91906125f2565b61065c565b005b61022b60048036038101906102269190612632565b61082a565b005b610235610940565b6040516102429190612678565b60405180910390f35b610265600480360381019061026091906126f1565b610945565b6040516102729190612678565b60405180910390f35b61029560048036038101906102909190612783565b61095d565b005b6102b160048036038101906102ac9190612632565b610ad3565b6040516102be919061281f565b60405180910390f35b6102cf610af3565b6040516102dc9190612849565b60405180910390f35b6102ed610b19565b6040516102fa9190612678565b60405180910390f35b61031d600480360381019061031891906128ca565b610b1f565b60405161032a919061281f565b60405180910390f35b61034d60048036038101906103489190612632565b610dbb565b60405161035c93929190612942565b60405180910390f35b61036d610de5565b60405161037a9190612979565b60405180910390f35b61038b610deb565b6040516103989190612678565b60405180910390f35b6103bb60048036038101906103b691906129c0565b610df8565b6040516103ca93929190612a7d565b60405180910390f35b6103ed60048036038101906103e89190612add565b610eba565b005b6103f761110a565b60405161040996959493929190612b0a565b60405180910390f35b61042c600480360381019061042791906128ca565b6113dc565b604051610439919061281f565b60405180910390f35b61045c60048036038101906104579190612cbe565b611838565b005b61047860048036038101906104739190612d5d565b61198b565b005b610482611ab9565b60405161048f9190612678565b60405180910390f35b6104b260048036038101906104ad9190612dbd565b611ac6565b005b6104ce60048036038101906104c99190612632565b611c75565b005b6104ea60048036038101906104e591906126f1565b611d47565b6040516104f7919061281f565b60405180910390f35b610508611d67565b6040516105159190612ee9565b60405180910390f35b610526611df5565b6040516105339190612ee9565b60405180910390f35b610544611e83565b6040516105519190612979565b60405180910390f35b610574600480360381019061056f9190612f0b565b611e89565b005b610590600480360381019061058b91906126f1565b611f66565b60405161059d919061281f565b60405180910390f35b6105c060048036038101906105bb91906129c0565b611f86565b6040516105cd9190612979565b60405180910390f35b6105f060048036038101906105eb9190612f58565b611faa565b005b61060c600480360381019061060791906126f1565b6122e2565b604051610619919061281f565b60405180910390f35b61062a612302565b6040516106379190612849565b60405180910390f35b61065a600480360381019061065591906126f1565b612326565b005b7f9651c33eb23976f7c15240e86443dc2ded40546fa9ba457a14abab4090e023b5600160040160405160200161069291906130a8565b60405160208183030381529060405280519060200120146106e8576040517f08c379a00000000000000000000000000000000000000000000000000000000081526004016106df9061310b565b60405180910390fd5b600b600083815260200190815260200160002060009054906101000a900460ff1615610749576040517f08c379a000000000000000000000000000000000000000000000000000000000815260040161074090613177565b60405180910390fd5b604051806060016040528083815260200182815260200142815250600960008481526020019081526020016000206000820151816000015560208201518160010155604082015181600201559050506001600b600084815260200190815260200160002060006101000a81548160ff021916908315150217905550600a82908060018154018082558091505060019003906000526020600020016000909190919091505580827f1aa37c29a356ade7de037765d53ea7e706f2278420ed47e644c0af035d6550ba4260405161081e9190612678565b60405180910390a35050565b60008054906101000a900473ffffffffffffffffffffffffffffffffffffffff1673ffffffffffffffffffffffffffffffffffffffff163373ffffffffffffffffffffffffffffffffffffffff16146108b8576040517f08c379a00000000000000000000000000000000000000000000000000000000081526004016108af906131e3565b60405180910390fd5b6000801b600c54146108ff576040517f08c379a00000000000000000000000000000000000000000000000000000000081526004016108f69061324f565b60405180910390fd5b80600c819055507f07b087b719c78dd94d9e1c9dcee2dbb117f53d18e36184b3ba0ad48db6fbc22a816040516109359190612979565b60405180910390a150565b600281565b60106020528060005260406000206000915090505481565b601460009054906101000a900473ffffffffffffffffffffffffffffffffffffffff1673ffffffffffffffffffffffffffffffffffffffff163373ffffffffffffffffffffffffffffffffffffffff16146109ed576040517f08c379a00000000000000000000000000000000000000000000000000000000081526004016109e4906132bb565b60405180910390fd5b818190508484905014610a35576040517f08c379a0000000000000000000000000000000000000000000000000000000008152600401610a2c90613327565b60405180910390fd5b60005b84849050811015610acc57600181610a509190613376565b7f3f43c5f7b17d028526089f9ba4ba863ef2a26802b48f4f85012a3ec93d4bbcd9868684818110610a8457610a836133aa565b5b905060400201858585818110610a9d57610a9c6133aa565b5b905060400201604051610ab19291906133f2565b60405180910390a28080610ac49061341b565b915050610a38565b5050505050565b600b6020528060005260406000206000915054906101000a900460ff1681565b601460009054906101000a900473ffffffffffffffffffffffffffffffffffffffff1681565b60115481565b6000600f60003373ffffffffffffffffffffffffffffffffffffffff1673ffffffffffffffffffffffffffffffffffffffff16815260200190815260200160002060009054906101000a900460ff16610bad576040517f08c379a0000000000000000000000000000000000000000000000000000000008152600401610ba4906134af565b60405180910390fd5b6000610ccf866002806020026040519081016040528092919082600260200280828437600081840152601f19601f82011690508083019250505050505086600280602002604051908101604052809291906000905b82821015610c56578382604002016002806020026040519081016040528092919082600260200280828437600081840152601f19601f82011690508083019250505050505081526020019060010190610c02565b50505050866002806020026040519081016040528092919082600260200280828437600081840152601f19601f820116905080830192505050505050866001806020026040519081016040528092919082600160200280828437600081840152601f19601f820116905080830192505050505050612467565b90508015610d77576001601260003373ffffffffffffffffffffffffffffffffffffffff1673ffffffffffffffffffffffffffffffffffffffff16815260200190815260200160002060006101000a81548160ff0219169083151502179055503373ffffffffffffffffffffffffffffffffffffffff167f461f94abfffacf370cd3915fe79cceea6ccd2356cae317fbb3f7f3bae81cfea060405160405180910390a2610daf565b7f927295f72e08d9a5955fd9b158ac28cc0a9bc6c057c7171bbca9161241849ea733604051610da69190612849565b60405180910390a15b80915050949350505050565b60096020528060005260406000206000915090508060000154908060010154908060020154905083565b600c5481565b6000600780549050905090565b60078181548110610e0857600080fd5b9060005260206000209060030201600091509050806000015490806001018054610e3190612fd4565b80601f0160208091040260200160405190810160405280929190818152602001828054610e5d90612fd4565b8015610eaa5780601f10610e7f57610100808354040283529160200191610eaa565b820191906000526020600020905b815481529060010190602001808311610e8d57829003601f168201915b5050505050908060020154905083565b60008054906101000a900473ffffffffffffffffffffffffffffffffffffffff1673ffffffffffffffffffffffffffffffffffffffff163373ffffffffffffffffffffffffffffffffffffffff1614610f48576040517f08c379a0000000000000000000000000000000000000000000000000000000008152600401610f3f906131e3565b60405180910390fd5b600060115414610f8d576040517f08c379a0000000000000000000000000000000000000000000000000000000008152600401610f849061351b565b60405180910390fd5b60005b6003811015611106576001600f6000848460038110610fb257610fb16133aa565b5b602002016020810190610fc591906126f1565b73ffffffffffffffffffffffffffffffffffffffff1673ffffffffffffffffffffffffffffffffffffffff16815260200190815260200160002060006101000a81548160ff0219169083151502179055506001816110239190613376565b6010600084846003811061103a576110396133aa565b5b60200201602081019061104d91906126f1565b73ffffffffffffffffffffffffffffffffffffffff1673ffffffffffffffffffffffffffffffffffffffff1681526020019081526020016000208190555081816003811061109e5761109d6133aa565b5b6020020160208101906110b191906126f1565b73ffffffffffffffffffffffffffffffffffffffff167f85778b4fc65f26951d8cf0de370d55669440118927711dbc86de5ab3904def3160405160405180910390a280806110fe9061341b565b915050610f90565b5050565b600180600001805461111b90612fd4565b80601f016020809104026020016040519081016040528092919081815260200182805461114790612fd4565b80156111945780601f1061116957610100808354040283529160200191611194565b820191906000526020600020905b81548152906001019060200180831161117757829003601f168201915b5050505050908060010180546111a990612fd4565b80601f01602080910402602001604051908101604052809291908181526020018280546111d590612fd4565b80156112225780601f106111f757610100808354040283529160200191611222565b820191906000526020600020905b81548152906001019060200180831161120557829003601f168201915b50505050509080600201805461123790612fd4565b80601f016020809104026020016040519081016040528092919081815260200182805461126390612fd4565b80156112b05780601f10611285576101008083540402835291602001916112b0565b820191906000526020600020905b81548152906001019060200180831161129357829003601f168201915b5050505050908060030180546112c590612fd4565b80601f01602080910402602001604051908101604052809291908181526020018280546112f190612fd4565b801561133e5780601f106113135761010080835404028352916020019161133e565b820191906000526020600020905b81548152906001019060200180831161132157829003601f168201915b50505050509080600401805461135390612fd4565b80601f016020809104026020016040519081016040528092919081815260200182805461137f90612fd4565b80156113cc5780601f106113a1576101008083540402835291602001916113cc565b820191906000526020600020905b8154815290600101906020018083116113af57829003601f168201915b5050505050908060050154905086565b6000611809565b7f30644e72e131a029b85045b68181585d2833e84879b9709143e1f593f00000018110611414576000805260206000f35b50565b600060405183815284602082015285604082015260408160608360076107d05a03fa91508161144a576000805260206000f35b825160408201526020830151606082015260408360808360066107d05a03fa91508161147a576000805260206000f35b505050505050565b600060808601600087017f2d2bbd05032830e38fbe5b92d97d5308b19d59e04f5a9e3e0b12bfe5781cc41481527f0b6b27a36c650fe495f8e8a74b606e629fbb57ca954fe920cf9793f093fed3f6602082015261152560008801357f1edd51c662e1c077b99b381d14dbf3a0e0883bd1365f716f15a7fde476d6e1357f0612ebacc2a0f75422c59901603b7063c5862071cb50f9361dbf16b239f9b83784611417565b833582527f30644e72e131a029b85045b68181585d97816a916871ca8d3c208c16d87cfd4760208501357f30644e72e131a029b85045b68181585d97816a916871ca8d3c208c16d87cfd4703066020830152843560408301526020850135606083015260408501356080830152606085013560a08301527f0fa97dbe05c01604f78e309ff166a3d1ca5a169ad7e4c273978b2d12951b3aa860c08301527f1ce3d36ac75c22ca880a3589453dd56d74ebcd3dc0d02bbd68b34d5d7950ca2960e08301527f08854137860062e4ae212836201a5afcfe3f37123650b07b4ccbbe81528d77b16101008301527f061483df5d4504f9f4c4d0db42fc7ff28dca2e621cedbddef0fc1517ba3608686101208301527f234436eb026880fecd883256f20c9bf04145e8d2851134db03fb0750a0eaae3a6101408301527f0477051796d060fccce2dcb65437ad24c044e0ead79119f3eb26f1ac3ce97b7b610160830152600088015161018083015260206000018801516101a08301527f198e9393920d483a7260bfb731fb5d25f1aa493335a9e71297e485b7aef312c26101c08301527f1800deef121f1e76426a00665e5c4479674322d4f75edadd46debd5cd992f6ed6101e08301527f090689d0585ff075ec9e99ad690c3395bc4b313370b38ef355acdadcd122975b6102008301527f12c85ea5db8c6deb4aab71808dcb408fe3d1e7690c43d37b4ce6cc0166fa7daa610220830152853561024083015260208601356102608301527f198e9393920d483a7260bfb731fb5d25f1aa493335a9e71297e485b7aef312c26102808301527f1800deef121f1e76426a00665e5c4479674322d4f75edadd46debd5cd992f6ed6102a08301527f090689d0585ff075ec9e99ad690c3395bc4b313370b38ef355acdadcd122975b6102c08301527f12c85ea5db8c6deb4aab71808dcb408fe3d1e7690c43d37b4ce6cc0166fa7daa6102e08301526020826103008460086107d05a03fa82518116935050505095945050505050565b604051610380810160405261182160008401356113e3565b61182e818486888a611482565b8060005260206000f35b60008054906101000a900473ffffffffffffffffffffffffffffffffffffffff1673ffffffffffffffffffffffffffffffffffffffff163373ffffffffffffffffffffffffffffffffffffffff16146118c6576040517f08c379a00000000000000000000000000000000000000000000000000000000081526004016118bd906131e3565b60405180910390fd5b6007604051806060016040528060016007805490506118e59190613376565b81526020018381526020016000815250908060018154018082558091505060019003906000526020600020906003020160009091909190915060008201518160000155602082015181600101908161193d91906136d2565b506040820151816002015550507fe83b2a43e7e82d975c8a0a6d2f045153c869e111136a34d1889ab7b598e396a3600780549050826040516119809291906137a4565b60405180910390a150565b60008054906101000a900473ffffffffffffffffffffffffffffffffffffffff1673ffffffffffffffffffffffffffffffffffffffff163373ffffffffffffffffffffffffffffffffffffffff1614611a19576040517f08c379a0000000000000000000000000000000000000000000000000000000008152600401611a10906131e3565b60405180910390fd5b6000801b600c5403611a60576040517f08c379a0000000000000000000000000000000000000000000000000000000008152600401611a5790613820565b60405180910390fd5b8282600d9182611a719291906138a6565b5080600e819055507fad9eb62a1200464e429cddb0ed9be8ce6d18df06b2e3f358ba7cb06ad06a2142838383604051611aac939291906139a3565b60405180910390a1505050565b6000600a80549050905090565b60008054906101000a900473ffffffffffffffffffffffffffffffffffffffff1673ffffffffffffffffffffffffffffffffffffffff163373ffffffffffffffffffffffffffffffffffffffff1614611b54576040517f08c379a0000000000000000000000000000000000000000000000000000000008152600401611b4b906131e3565b60405180910390fd5b6040518060c001604052808581526020018481526020018381526020018281526020016040518060400160405280600681526020017f616374697665000000000000000000000000000000000000000000000000000081525081526020016000801b81525060016000820151816000019081611bd091906136d2565b506020820151816001019081611be691906136d2565b506040820151816002019081611bfc91906136d2565b506060820151816003019081611c1291906136d2565b506080820151816004019081611c2891906136d2565b5060a082015181600501559050507f1594903932ed8f9b9f2f2bbc15a18c132591e2c4d3730ba56705aa661662f49c8484604051611c679291906139d5565b60405180910390a150505050565b60008054906101000a900473ffffffffffffffffffffffffffffffffffffffff1673ffffffffffffffffffffffffffffffffffffffff163373ffffffffffffffffffffffffffffffffffffffff1614611d03576040517f08c379a0000000000000000000000000000000000000000000000000000000008152600401611cfa906131e3565b60405180910390fd5b806001600501819055507f90004c04698bc3322499a575ed3752dd4abf33e0a7294c06a787a0fe01bea94181604051611d3c9190612979565b60405180910390a150565b60136020528060005260406000206000915054906101000a900460ff1681565b60088054611d7490612fd4565b80601f0160208091040260200160405190810160405280929190818152602001828054611da090612fd4565b8015611ded5780601f10611dc257610100808354040283529160200191611ded565b820191906000526020600020905b815481529060010190602001808311611dd057829003601f168201915b505050505081565b600d8054611e0290612fd4565b80601f0160208091040260200160405190810160405280929190818152602001828054611e2e90612fd4565b8015611e7b5780601f10611e5057610100808354040283529160200191611e7b565b820191906000526020600020905b815481529060010190602001808311611e5e57829003601f168201915b505050505081565b600e5481565b60008054906101000a900473ffffffffffffffffffffffffffffffffffffffff1673ffffffffffffffffffffffffffffffffffffffff163373ffffffffffffffffffffffffffffffffffffffff1614611f17576040517f08c379a0000000000000000000000000000000000000000000000000000000008152600401611f0e906131e3565b60405180910390fd5b818160089182611f289291906138a6565b507fcbe11c4a798e6399d2bdc5014d77dd62a510f9a2d3e8d17fa579793168e7b2198282604051611f5a929190613a0c565b60405180910390a15050565b600f6020528060005260406000206000915054906101000a900460ff1681565b600a8181548110611f9657600080fd5b906000526020600020016000915090505481565b600f60003373ffffffffffffffffffffffffffffffffffffffff1673ffffffffffffffffffffffffffffffffffffffff16815260200190815260200160002060009054906101000a900460ff16612036576040517f08c379a000000000000000000000000000000000000000000000000000000000815260040161202d906134af565b60405180910390fd5b601260003373ffffffffffffffffffffffffffffffffffffffff1673ffffffffffffffffffffffffffffffffffffffff16815260200190815260200160002060009054906101000a900460ff166120c2576040517f08c379a00000000000000000000000000000000000000000000000000000000081526004016120b990613a7c565b60405180910390fd5b601360003373ffffffffffffffffffffffffffffffffffffffff1673ffffffffffffffffffffffffffffffffffffffff16815260200190815260200160002060009054906101000a900460ff161561214f576040517f08c379a00000000000000000000000000000000000000000000000000000000081526004016121469061324f565b60405180910390fd5b60008282905011612195576040517f08c379a000000000000000000000000000000000000000000000000000000000815260040161218c90613ae8565b60405180910390fd5b6001601360003373ffffffffffffffffffffffffffffffffffffffff1673ffffffffffffffffffffffffffffffffffffffff16815260200190815260200160002060006101000a81548160ff0219169083151502179055506000601260003373ffffffffffffffffffffffffffffffffffffffff1673ffffffffffffffffffffffffffffffffffffffff16815260200190815260200160002060006101000a81548160ff0219169083151502179055506011600081548092919060010191905055503373ffffffffffffffffffffffffffffffffffffffff167f84ed87109962c02c163a4cb962b99e44550d6d3e65b0539743f436be6f38a41b838360405161229f929190613bc0565b60405180910390a26002601154106122de577fb5c83c1854b3926d397eff3a576d47f9d1ef613af9b5d8e34fb1f6641428230660405160405180910390a15b5050565b60126020528060005260406000206000915054906101000a900460ff1681565b60008054906101000a900473ffffffffffffffffffffffffffffffffffffffff1681565b60008054906101000a900473ffffffffffffffffffffffffffffffffffffffff1673ffffffffffffffffffffffffffffffffffffffff163373ffffffffffffffffffffffffffffffffffffffff16146123b4576040517f08c379a00000000000000000000000000000000000000000000000000000000081526004016123ab906131e3565b60405180910390fd5b600073ffffffffffffffffffffffffffffffffffffffff168173ffffffffffffffffffffffffffffffffffffffff1603612423576040517f08c379a000000000000000000000000000000000000000000000000000000000815260040161241a90613c30565b60405180910390fd5b80601460006101000a81548173ffffffffffffffffffffffffffffffffffffffff021916908373ffffffffffffffffffffffffffffffffffffffff16021790555050565b60008060003073ffffffffffffffffffffffffffffffffffffffff168787878760405160240161249a9493929190613e7d565b6040516020818303038152906040527f43753b4d000000000000000000000000000000000000000000000000000000007bffffffffffffffffffffffffffffffffffffffffffffffffffffffff19166020820180517bffffffffffffffffffffffffffffffffffffffffffffffffffffffff83818316178352505050506040516125249190613f00565b600060405180830381855afa9150503d806000811461255f576040519150601f19603f3d011682016040523d82523d6000602084013e612564565b606091505b5091509150811580612577575060208151105b15612587576000925050506125a0565b8080602001905181019061259b9190613f43565b925050505b949350505050565b6000604051905090565b600080fd5b600080fd5b6000819050919050565b6125cf816125bc565b81146125da57600080fd5b50565b6000813590506125ec816125c6565b92915050565b60008060408385031215612609576126086125b2565b5b6000612617858286016125dd565b9250506020612628858286016125dd565b9150509250929050565b600060208284031215612648576126476125b2565b5b6000612656848285016125dd565b91505092915050565b6000819050919050565b6126728161265f565b82525050565b600060208201905061268d6000830184612669565b92915050565b600073ffffffffffffffffffffffffffffffffffffffff82169050919050565b60006126be82612693565b9050919050565b6126ce816126b3565b81146126d957600080fd5b50565b6000813590506126eb816126c5565b92915050565b600060208284031215612707576127066125b2565b5b6000612715848285016126dc565b91505092915050565b600080fd5b600080fd5b600080fd5b60008083601f8401126127435761274261271e565b5b8235905067ffffffffffffffff8111156127605761275f612723565b5b60208301915083604082028301111561277c5761277b612728565b5b9250929050565b6000806000806040858703121561279d5761279c6125b2565b5b600085013567ffffffffffffffff8111156127bb576127ba6125b7565b5b6127c78782880161272d565b9450945050602085013567ffffffffffffffff8111156127ea576127e96125b7565b5b6127f68782880161272d565b925092505092959194509250565b60008115159050919050565b61281981612804565b82525050565b60006020820190506128346000830184612810565b92915050565b612843816126b3565b82525050565b600060208201905061285e600083018461283a565b92915050565b6000819050826020600202820111156128805761287f612728565b5b92915050565b6000819050826040600202820111156128a2576128a1612728565b5b92915050565b6000819050826020600102820111156128c4576128c3612728565b5b92915050565b60008060008061012085870312156128e5576128e46125b2565b5b60006128f387828801612864565b945050604061290487828801612886565b93505060c061291587828801612864565b925050610100612927878288016128a8565b91505092959194509250565b61293c816125bc565b82525050565b60006060820190506129576000830186612933565b6129646020830185612933565b6129716040830184612669565b949350505050565b600060208201905061298e6000830184612933565b92915050565b61299d8161265f565b81146129a857600080fd5b50565b6000813590506129ba81612994565b92915050565b6000602082840312156129d6576129d56125b2565b5b60006129e4848285016129ab565b91505092915050565b600081519050919050565b600082825260208201905092915050565b60005b83811015612a27578082015181840152602081019050612a0c565b60008484015250505050565b6000601f19601f8301169050919050565b6000612a4f826129ed565b612a5981856129f8565b9350612a69818560208601612a09565b612a7281612a33565b840191505092915050565b6000606082019050612a926000830186612669565b8181036020830152612aa48185612a44565b9050612ab36040830184612669565b949350505050565b600081905082602060030282011115612ad757612ad6612728565b5b92915050565b600060608284031215612af357612af26125b2565b5b6000612b0184828501612abb565b91505092915050565b600060c0820190508181036000830152612b248189612a44565b90508181036020830152612b388188612a44565b90508181036040830152612b4c8187612a44565b90508181036060830152612b608186612a44565b90508181036080830152612b748185612a44565b9050612b8360a0830184612933565b979650505050505050565b600080fd5b7f4e487b7100000000000000000000000000000000000000000000000000000000600052604160045260246000fd5b612bcb82612a33565b810181811067ffffffffffffffff82111715612bea57612be9612b93565b5b80604052505050565b6000612bfd6125a8565b9050612c098282612bc2565b919050565b600067ffffffffffffffff821115612c2957612c28612b93565b5b612c3282612a33565b9050602081019050919050565b82818337600083830152505050565b6000612c61612c5c84612c0e565b612bf3565b905082815260208101848484011115612c7d57612c7c612b8e565b5b612c88848285612c3f565b509392505050565b600082601f830112612ca557612ca461271e565b5b8135612cb5848260208601612c4e565b91505092915050565b600060208284031215612cd457612cd36125b2565b5b600082013567ffffffffffffffff811115612cf257612cf16125b7565b5b612cfe84828501612c90565b91505092915050565b60008083601f840112612d1d57612d1c61271e565b5b8235905067ffffffffffffffff811115612d3a57612d39612723565b5b602083019150836001820283011115612d5657612d55612728565b5b9250929050565b600080600060408486031215612d7657612d756125b2565b5b600084013567ffffffffffffffff811115612d9457612d936125b7565b5b612da086828701612d07565b93509350506020612db3868287016125dd565b9150509250925092565b60008060008060808587031215612dd757612dd66125b2565b5b600085013567ffffffffffffffff811115612df557612df46125b7565b5b612e0187828801612c90565b945050602085013567ffffffffffffffff811115612e2257612e216125b7565b5b612e2e87828801612c90565b935050604085013567ffffffffffffffff811115612e4f57612e4e6125b7565b5b612e5b87828801612c90565b925050606085013567ffffffffffffffff811115612e7c57612e7b6125b7565b5b612e8887828801612c90565b91505092959194509250565b600081519050919050565b600082825260208201905092915050565b6000612ebb82612e94565b612ec58185612e9f565b9350612ed5818560208601612a09565b612ede81612a33565b840191505092915050565b60006020820190508181036000830152612f038184612eb0565b905092915050565b60008060208385031215612f2257612f216125b2565b5b600083013567ffffffffffffffff811115612f4057612f3f6125b7565b5b612f4c85828601612d07565b92509250509250929050565b60008060208385031215612f6f57612f6e6125b2565b5b600083013567ffffffffffffffff811115612f8d57612f8c6125b7565b5b612f998582860161272d565b92509250509250929050565b7f4e487b7100000000000000000000000000000000000000000000000000000000600052602260045260246000fd5b60006002820490506001821680612fec57607f821691505b602082108103612fff57612ffe612fa5565b5b50919050565b600081905092915050565b60008190508160005260206000209050919050565b6000815461303281612fd4565b61303c8186613005565b94506001821660008114613057576001811461306c5761309f565b60ff198316865281151582028601935061309f565b61307585613010565b60005b8381101561309757815481890152600182019150602081019050613078565b838801955050505b50505092915050565b60006130b48284613025565b915081905092915050565b7f456c656374696f6e206e6f742061637469766500000000000000000000000000600082015250565b60006130f56013836129f8565b9150613100826130bf565b602082019050919050565b60006020820190508181036000830152613124816130e8565b9050919050565b7f446f75626c6520766f7465206465746563746564000000000000000000000000600082015250565b60006131616014836129f8565b915061316c8261312b565b602082019050919050565b6000602082019050818103600083015261319081613154565b9050919050565b7f4e6f7420617574686f72697a6564000000000000000000000000000000000000600082015250565b60006131cd600e836129f8565b91506131d882613197565b602082019050919050565b600060208201905081810360008301526131fc816131c0565b9050919050565b7f416c7265616479207075626c6973686564000000000000000000000000000000600082015250565b60006132396011836129f8565b915061324482613203565b602082019050919050565b600060208201905081810360008301526132688161322c565b9050919050565b7f4e6f7420617574686f72697a6564202861676772656761746f72206f6e6c7929600082015250565b60006132a56020836129f8565b91506132b08261326f565b602082019050919050565b600060208201905081810360008301526132d481613298565b9050919050565b7f4c656e677468206d69736d617463680000000000000000000000000000000000600082015250565b6000613311600f836129f8565b915061331c826132db565b602082019050919050565b6000602082019050818103600083015261334081613304565b9050919050565b7f4e487b7100000000000000000000000000000000000000000000000000000000600052601160045260246000fd5b60006133818261265f565b915061338c8361265f565b92508282019050808211156133a4576133a3613347565b5b92915050565b7f4e487b7100000000000000000000000000000000000000000000000000000000600052603260045260246000fd5b82818337505050565b6133ee604083836133d9565b5050565b600060808201905061340760008301856133e2565b61341460408301846133e2565b9392505050565b60006134268261265f565b91507fffffffffffffffffffffffffffffffffffffffffffffffffffffffffffffffff820361345857613457613347565b5b600182019050919050565b7f4e6f742074727573746565000000000000000000000000000000000000000000600082015250565b6000613499600b836129f8565b91506134a482613463565b602082019050919050565b600060208201905081810360008301526134c88161348c565b9050919050565b7f416c726561647920696e697469616c697a656400000000000000000000000000600082015250565b60006135056013836129f8565b9150613510826134cf565b602082019050919050565b60006020820190508181036000830152613534816134f8565b9050919050565b60006020601f8301049050919050565b600082821b905092915050565b6000600883026135887fffffffffffffffffffffffffffffffffffffffffffffffffffffffffffffffff8261354b565b613592868361354b565b95508019841693508086168417925050509392505050565b6000819050919050565b60006135cf6135ca6135c58461265f565b6135aa565b61265f565b9050919050565b6000819050919050565b6135e9836135b4565b6135fd6135f5826135d6565b848454613558565b825550505050565b600090565b613612613605565b61361d8184846135e0565b505050565b5b818110156136415761363660008261360a565b600181019050613623565b5050565b601f8211156136865761365781613010565b6136608461353b565b8101602085101561366f578190505b61368361367b8561353b565b830182613622565b50505b505050565b600082821c905092915050565b60006136a96000198460080261368b565b1980831691505092915050565b60006136c28383613698565b9150826002028217905092915050565b6136db826129ed565b67ffffffffffffffff8111156136f4576136f3612b93565b5b6136fe8254612fd4565b613709828285613645565b600060209050601f83116001811461373c576000841561372a578287015190505b61373485826136b6565b86555061379c565b601f19841661374a86613010565b60005b828110156137725784890151825560018201915060208501945060208101905061374d565b8683101561378f578489015161378b601f891682613698565b8355505b6001600288020188555050505b505050505050565b60006040820190506137b96000830185612669565b81810360208301526137cb8184612a44565b90509392505050565b7f686173684f6e436861696e206e6f742073657400000000000000000000000000600082015250565b600061380a6013836129f8565b9150613815826137d4565b602082019050919050565b60006020820190508181036000830152613839816137fd565b9050919050565b600082905092915050565b60008190508160005260206000209050919050565b601f8211156138a1576138728161384b565b61387b8461353b565b8101602085101561388a578190505b61389e6138968561353b565b830182613622565b50505b505050565b6138b08383613840565b67ffffffffffffffff8111156138c9576138c8612b93565b5b6138d38254612fd4565b6138de828285613860565b6000601f83116001811461390d57600084156138fb578287013590505b61390585826136b6565b86555061396d565b601f19841661391b8661384b565b60005b828110156139435784890135825560018201915060208501945060208101905061391e565b86831015613960578489013561395c601f891682613698565b8355505b6001600288020188555050505b50505050505050565b60006139828385612e9f565b935061398f838584612c3f565b61399883612a33565b840190509392505050565b600060408201905081810360008301526139be818587613976565b90506139cd6020830184612933565b949350505050565b600060408201905081810360008301526139ef8185612a44565b90508181036020830152613a038184612a44565b90509392505050565b60006020820190508181036000830152613a27818486613976565b90509392505050565b7f50726f6f66206e6f742076657269666965640000000000000000000000000000600082015250565b6000613a666012836129f8565b9150613a7182613a30565b602082019050919050565b60006020820190508181036000830152613a9581613a59565b9050919050565b7f456d70747920445f706f696e7473000000000000000000000000000000000000600082015250565b6000613ad2600e836129f8565b9150613add82613a9c565b602082019050919050565b60006020820190508181036000830152613b0181613ac5565b9050919050565b600082825260208201905092915050565b6000819050919050565b613b2f604083836133d9565b5050565b6000613b3f8383613b23565b60408301905092915050565b600082905092915050565b6000604082019050919050565b6000613b6f8385613b08565b9350613b7a82613b19565b8060005b85811015613bb357613b908284613b4b565b613b9a8882613b33565b9750613ba583613b56565b925050600181019050613b7e565b5085925050509392505050565b60006020820190508181036000830152613bdb818486613b63565b90509392505050565b7f696e76616c69642061676772656761746f720000000000000000000000000000600082015250565b6000613c1a6012836129f8565b9150613c2582613be4565b602082019050919050565b60006020820190508181036000830152613c4981613c0d565b9050919050565b600060029050919050565b600081905092915050565b6000819050919050565b613c798161265f565b82525050565b6000613c8b8383613c70565b60208301905092915050565b6000602082019050919050565b613cad81613c50565b613cb78184613c5b565b9250613cc282613c66565b8060005b83811015613cf3578151613cda8782613c7f565b9650613ce583613c97565b925050600181019050613cc6565b505050505050565b600060029050919050565b600081905092915050565b6000819050919050565b600081905092915050565b613d2f81613c50565b613d398184613d1b565b9250613d4482613c66565b8060005b83811015613d75578151613d5c8782613c7f565b9650613d6783613c97565b925050600181019050613d48565b505050505050565b6000613d898383613d26565b60408301905092915050565b6000602082019050919050565b613dab81613cfb565b613db58184613d06565b9250613dc082613d11565b8060005b83811015613df1578151613dd88782613d7d565b9650613de383613d95565b925050600181019050613dc4565b505050505050565b600060019050919050565b600081905092915050565b6000819050919050565b6000602082019050919050565b613e2f81613df9565b613e398184613e04565b9250613e4482613e0f565b8060005b83811015613e75578151613e5c8782613c7f565b9650613e6783613e19565b925050600181019050613e48565b505050505050565b600061012082019050613e936000830187613ca4565b613ea06040830186613da2565b613ead60c0830185613ca4565b613ebb610100830184613e26565b95945050505050565b600081905092915050565b6000613eda82612e94565b613ee48185613ec4565b9350613ef4818560208601612a09565b80840191505092915050565b6000613f0c8284613ecf565b915081905092915050565b613f2081612804565b8114613f2b57600080fd5b50565b600081519050613f3d81613f17565b92915050565b600060208284031215613f5957613f586125b2565b5b6000613f6784828501613f2e565b9150509291505056fea2646970667358221220f90d93d44452d3fbc9a3a4d283ca3250f2e9819540745bbf0544e70e27d88fd464736f6c63430008140033",
  "linkReferences": {},
  "deployedLinkReferences": {}
}