{
  "_format": "hh-sol-artifact-1",
  "contractName": "E_Voting",
  "sourceName": "contracts/E_Voting.sol",
  "abi": [
    {
      "inputs": [],
      "stateMutability": "nonpayable",
      "type": "constructor"
    },
    {
      "anonymous": false,
      "inputs": [],
      "name": "AllTrusteesAgreed",
      "type": "event"
    },
    {
      "anonymous": false,
      "inputs": [
        {
          "indexed": false,
          "internalType": "uint256",
          "name": "id",
          "type": "uint256"
        },
        {
          "indexed": false,
          "internalType": "string",
          "name": "name",
          "type": "string"
        }
      ],
      "name": "CandidateAdded",
      "type": "event"
    },
    {
      "anonymous": false,
      "inputs": [
        {
          "indexed": true,
          "internalType": "uint256",
          "name": "candidateId",
          "type": "uint256"
        },
        {
          "indexed": false,
          "internalType": "uint256[2]",
          "name": "C1_total",
          "type": "uint256[2]"
        },
        {
          "indexed": false,
          "internalType": "uint256[2]",
          "name": "C2_total",
          "type": "uint256[2]"
        }
      ],
      "name": "CipherTotalPublished",
      "type": "event"
    },
    {
      "anonymous": false,
      "inputs": [
        {
          "indexed": false,
          "internalType": "string",
          "name": "electionId",
          "type": "string"
        },
        {
          "indexed": false,
          "internalType": "string",
          "name": "name",
          "type": "string"
        }
      ],
      "name": "ElectionCreated",
      "type": "event"
    },
    {
      "anonymous": false,
      "inputs": [],
      "name": "ElectionEnded",
      "type": "event"
    },
    {
      "anonymous": false,
      "inputs": [
        {
          "indexed": false,
          "internalType": "bytes",
          "name": "epk",
          "type": "bytes"
        }
      ],
      "name": "EpkPublished",
      "type": "event"
    },
    {
      "anonymous": false,
      "inputs": [
        {
          "indexed": false,
          "internalType": "bytes32",
          "name": "hashAllOnChain",
          "type": "bytes32"
        }
      ],
      "name": "HashAllOnChainPublished",
      "type": "event"
    },
    {
      "anonymous": false,
      "inputs": [
        {
          "indexed": false,
          "internalType": "bytes32",
          "name": "root",
          "type": "bytes32"
        }
      ],
      "name": "MerkleRootUpdated",
      "type": "event"
    },
    {
      "anonymous": false,
      "inputs": [
        {
          "indexed": false,
          "internalType": "address",
          "name": "trustee",
          "type": "address"
        }
      ],
      "name": "PartialDecryptionFailed",
      "type": "event"
    },
    {
      "anonymous": false,
      "inputs": [
        {
          "indexed": true,
          "internalType": "address",
          "name": "trustee",
          "type": "address"
        },
        {
          "indexed": false,
          "internalType": "uint256[2][]",
          "name": "D_points",
          "type": "uint256[2][]"
        }
      ],
      "name": "PartialDecryptionSubmitted",
      "type": "event"
    },
    {
      "anonymous": false,
      "inputs": [
        {
          "indexed": true,
          "internalType": "address",
          "name": "trustee",
          "type": "address"
        }
      ],
      "name": "PartialDecryptionVerified",
      "type": "event"
    },
    {
      "anonymous": false,
      "inputs": [
        {
          "indexed": true,
          "internalType": "address",
          "name": "trustee",
          "type": "address"
        }
      ],
      "name": "TrusteeRegistered",
      "type": "event"
    },
    {
      "anonymous": false,
      "inputs": [
        {
          "indexed": true,
          "internalType": "bytes32",
          "name": "nullifier",
          "type": "bytes32"
        },
        {
          "indexed": true,
          "internalType": "bytes32",
          "name": "hashCipher",
          "type": "bytes32"
        }
      ],
      "name": "VotePublished",
      "type": "event"
    },
    {
      "inputs": [
        {
          "internalType": "string",
          "name": "_name",
          "type": "string"
        }
      ],
      "name": "addCandidate",
      "outputs": [],
      "stateMutability": "nonpayable",
      "type": "function"
    },
    {
      "inputs": [],
      "name": "admin",
      "outputs": [
        {
          "internalType": "address",
          "name": "",
          "type": "address"
        }
      ],
      "stateMutability": "view",
      "type": "function"
    },
    {
      "inputs": [],
      "name": "aggregator",
      "outputs": [
        {
          "internalType": "address",
          "name": "",
          "type": "address"
        }
      ],
      "stateMutability": "view",
      "type": "function"
    },
    {
      "inputs": [
        {
          "internalType": "uint256",
          "name": "",
          "type": "uint256"
        }
      ],
      "name": "candidates",
      "outputs": [
        {
          "internalType": "uint256",
          "name": "id",
          "type": "uint256"
        },
        {
          "internalType": "string",
          "name": "name",
          "type": "string"
        },
        {
          "internalType": "uint256",
          "name": "voteCount",
          "type": "uint256"
        }
      ],
      "stateMutability": "view",
      "type": "function"
    },
    {
      "inputs": [],
      "name": "endElection",
      "outputs": [],
      "stateMutability": "nonpayable",
      "type": "function"
    },
    {
      "inputs": [],
      "name": "epk",
      "outputs": [
        {
          "internalType": "bytes",
          "name": "",
          "type": "bytes"
        }
      ],
      "stateMutability": "view",
      "type": "function"
    },
    {
      "inputs": [],
      "name": "getCandidateCount",
      "outputs": [
        {
          "internalType": "uint256",
          "name": "",
          "type": "uint256"
        }
      ],
      "stateMutability": "view",
      "type": "function"
    },
    {
      "inputs": [
        {
          "internalType": "address",
          "name": "",
          "type": "address"
        }
      ],
      "name": "hasPublished",
      "outputs": [
        {
          "internalType": "bool",
          "name": "",
          "type": "bool"
        }
      ],
      "stateMutability": "view",
      "type": "function"
    },
    {
      "inputs": [],
      "name": "hashAllOnChain",
      "outputs": [
        {
          "internalType": "bytes32",
          "name": "",
          "type": "bytes32"
        }
      ],
      "stateMutability": "view",
      "type": "function"
    },
    {
      "inputs": [],
      "name": "info",
      "outputs": [
        {
          "internalType": "string",
          "name": "electionId",
          "type": "string"
        },
        {
          "internalType": "string",
          "name": "name",
          "type": "string"
        },
        {
          "internalType": "uint256",
          "name": "startDate",
          "type": "uint256"
        },
        {
          "internalType": "uint256",
          "name": "endDate",
          "type": "uint256"
        },
        {
          "internalType": "enum E_Voting.ElectionStatus",
          "name": "status",
          "type": "uint8"
        },
        {
          "internalType": "bytes32",
          "name": "merkleRoot",
          "type": "bytes32"
        }
      ],
      "stateMutability": "view",
      "type": "function"
    },
    {
      "inputs": [
        {
          "internalType": "bytes32",
          "name": "",
          "type": "bytes32"
        }
      ],
      "name": "isNullifierUsed",
      "outputs": [
        {
          "internalType": "bool",
          "name": "",
          "type": "bool"
        }
      ],
      "stateMutability": "view",
      "type": "function"
    },
    {
      "inputs": [
        {
          "internalType": "address",
          "name": "",
          "type": "address"
        }
      ],
      "name": "isTrustee",
      "outputs": [
        {
          "internalType": "bool",
          "name": "",
          "type": "bool"
        }
      ],
      "stateMutability": "view",
      "type": "function"
    },
    {
      "inputs": [
        {
          "internalType": "address",
          "name": "",
          "type": "address"
        }
      ],
      "name": "lastVerifyPassed",
      "outputs": [
        {
          "internalType": "bool",
          "name": "",
          "type": "bool"
        }
      ],
      "stateMutability": "view",
      "type": "function"
    },
    {
      "inputs": [],
      "name": "minRequired",
      "outputs": [
        {
          "internalType": "uint256",
          "name": "",
          "type": "uint256"
        }
      ],
      "stateMutability": "view",
      "type": "function"
    },
    {
      "inputs": [
        {
          "internalType": "uint256[2][]",
          "name": "C1_list",
          "type": "uint256[2][]"
        },
        {
          "internalType": "uint256[2][]",
          "name": "C2_list",
          "type": "uint256[2][]"
        }
      ],
      "name": "publishAllCipherTotals",
      "outputs": [],
      "stateMutability": "nonpayable",
      "type": "function"
    },
    {
      "inputs": [
        {
          "internalType": "bytes",
          "name": "_epk",
          "type": "bytes"
        }
      ],
      "name": "publishEpk",
      "outputs": [],
      "stateMutability": "nonpayable",
      "type": "function"
    },
    {
      "inputs": [
        {
          "internalType": "bytes32",
          "name": "_hashAllOnChain",
          "type": "bytes32"
        }
      ],
      "name": "publishHashAllOnChain",
      "outputs": [],
      "stateMutability": "nonpayable",
      "type": "function"
    },
    {
      "inputs": [
        {
          "internalType": "uint256[2][]",
          "name": "D_points",
          "type": "uint256[2][]"
        }
      ],
      "name": "publishPartialDecryption",
      "outputs": [],
      "stateMutability": "nonpayable",
      "type": "function"
    },
    {
      "inputs": [
        {
          "internalType": "address[3]",
          "name": "_trustees",
          "type": "address[3]"
        }
      ],
      "name": "registerTrustees",
      "outputs": [],
      "stateMutability": "nonpayable",
      "type": "function"
    },
    {
      "inputs": [
        {
          "internalType": "address",
          "name": "_aggregator",
          "type": "address"
        }
      ],
      "name": "setAggregator",
      "outputs": [],
      "stateMutability": "nonpayable",
      "type": "function"
    },
    {
      "inputs": [
        {
          "internalType": "string",
          "name": "_id",
          "type": "string"
        },
        {
          "internalType": "string",
          "name": "_name",
          "type": "string"
        },
        {
          "internalType": "uint256",
          "name": "_start",
          "type": "uint256"
        },
        {
          "internalType": "uint256",
          "name": "_end",
          "type": "uint256"
        }
      ],
      "name": "setElectionInfo",
      "outputs": [],
      "stateMutability": "nonpayable",
      "type": "function"
    },
    {
      "inputs": [
        {
          "internalType": "bytes32",
          "name": "_root",
          "type": "bytes32"
        }
      ],
      "name": "setMerkleRoot",
      "outputs": [],
      "stateMutability": "nonpayable",
      "type": "function"
    },
    {
      "inputs": [
        {
          "internalType": "bytes32",
          "name": "_nullifier",
          "type": "bytes32"
        },
        {
          "internalType": "bytes32",
          "name": "_hashCipher",
          "type": "bytes32"
        }
      ],
      "name": "submitVote",
      "outputs": [],
      "stateMutability": "nonpayable",
      "type": "function"
    },
    {
      "inputs": [],
      "name": "thresholdCount",
      "outputs": [
        {
          "internalType": "uint256",
          "name": "",
          "type": "uint256"
        }
      ],
      "stateMutability": "view",
      "type": "function"
    },
    {
      "inputs": [
        {
          "internalType": "address",
          "name": "",
          "type": "address"
        }
      ],
      "name": "trusteeID",
      "outputs": [
        {
          "internalType": "uint256",
          "name": "",
          "type": "uint256"
        }
      ],
      "stateMutability": "view",
      "type": "function"
    },
    {
      "inputs": [
        {
          "internalType": "uint256[2]",
          "name": "pA",
          "type": "uint256[2]"
        },
        {
          "internalType": "uint256[2][2]",
          "name": "pB",
          "type": "uint256[2][2]"
        },
        {
          "internalType": "uint256[2]",
          "name": "pC",
          "type": "uint256[2]"
        },
        {
          "internalType": "uint256[1]",
          "name": "pubSignals",
          "type": "uint256[1]"
        }
      ],
      "name": "verifyPartialProof",
      "outputs": [
        {
          "internalType": "bool",
          "name": "",
          "type": "bool"
        }
      ],
      "stateMutability": "nonpayable",
      "type": "function"
    },
    {
      "inputs": [
        {
          "internalType": "uint256[2]",
          "name": "_pA",
          "type": "uint256[2]"
        },
        {
          "internalType": "uint256[2][2]",
          "name": "_pB",
          "type": "uint256[2][2]"
        },
        {
          "internalType": "uint256[2]",
          "name": "_pC",
          "type": "uint256[2]"
        },
        {
          "internalType": "uint256[1]",
          "name": "_pubSignals",
          "type": "uint256[1]"
        }
      ],
      "name": "verifyProof",
      "outputs": [
        {
          "internalType": "bool",
          "name": "",
          "type": "bool"
        }
      ],
      "stateMutability": "view",
      "type": "function"
    }
  ],
  "bytecode": "0x608060405234801561001057600080fd5b50336000806101000a81548173ffffffffffffffffffffffffffffffffffffffff021916908373ffffffffffffffffffffffffffffffffffffffff160217905550613a52806100606000396000f3fe608060405234801561001057600080fd5b50600436106101a95760003560e01c8063370158ea116100f9578063ab989f5511610097578063d8617a6711610071578063d8617a67146104c1578063e4475213146104dd578063f851a4401461050d578063f9120af61461052b576101a9565b8063ab989f5514610457578063baacc5bd14610475578063c784cd1714610491576101a9565b806359f78468116100d357806359f78468146103e35780636604bf03146103ed5780637cb647591461040b578063872d9e6e14610427576101a9565b8063370158ea1461037457806343753b4d14610397578063462e91ec146103c7576101a9565b806322dc7b4c1161016657806329a6e55d1161014057806329a6e55d146102d857806330a56347146103085780633477ee2e14610326578063368f851314610358576101a9565b806322dc7b4c1461026c578063245a7bfc1461029c578063251060d6146102ba576101a9565b8063052497c6146101ae5780630d2ce376146101ca57806313e26d58146101e657806315aaa88014610204578063168e917a146102345780631bdf06f714610250575b600080fd5b6101c860048036038101906101c39190612328565b610547565b005b6101e460048036038101906101df91906123fd565b6106d6565b005b6101ee61080e565b6040516101fb919061244c565b60405180910390f35b61021e600480360381019061021991906124c5565b610813565b60405161022b919061244c565b60405180910390f35b61024e600480360381019061024991906124f2565b61082b565b005b61026a6004803603810190610265919061257f565b610941565b005b610286600480360381019061028191906124f2565b610ab7565b604051610293919061261b565b60405180910390f35b6102a4610ad7565b6040516102b19190612645565b60405180910390f35b6102c2610afd565b6040516102cf919061244c565b60405180910390f35b6102f260048036038101906102ed91906126c6565b610b03565b6040516102ff919061261b565b60405180910390f35b610310610d9f565b60405161031d919061244c565b60405180910390f35b610340600480360381019061033b919061272f565b610dac565b60405161034f939291906127db565b60405180910390f35b610372600480360381019061036d919061283b565b610e6e565b005b61037c6110be565b60405161038e969594939291906128ee565b60405180910390f35b6103b160048036038101906103ac91906126c6565b611205565b6040516103be919061261b565b60405180910390f35b6103e160048036038101906103dc919061295d565b611661565b005b6103eb6117b4565b005b6103f5611917565b60405161040291906129a6565b60405180910390f35b610425600480360381019061042091906124f2565b61191d565b005b610441600480360381019061043c91906124c5565b6119ef565b60405161044e919061261b565b60405180910390f35b61045f611a0f565b60405161046c9190612a16565b60405180910390f35b61048f600480360381019061048a9190612a8e565b611a9d565b005b6104ab60048036038101906104a691906124c5565b611b7a565b6040516104b8919061261b565b60405180910390f35b6104db60048036038101906104d69190612adb565b611b9a565b005b6104f760048036038101906104f291906124c5565b611ed2565b604051610504919061261b565b60405180910390f35b610515611ef2565b6040516105229190612645565b60405180910390f35b610545600480360381019061054091906124c5565b611f16565b005b60008054906101000a900473ffffffffffffffffffffffffffffffffffffffff1673ffffffffffffffffffffffffffffffffffffffff163373ffffffffffffffffffffffffffffffffffffffff16146105d5576040517f08c379a00000000000000000000000000000000000000000000000000000000081526004016105cc90612b74565b60405180910390fd5b6040518060c001604052808581526020018481526020018381526020018281526020016001600281111561060c5761060b612868565b5b81526020016000801b8152506001600082015181600001908161062f9190612da0565b5060208201518160010190816106459190612da0565b50604082015181600201556060820151816003015560808201518160040160006101000a81548160ff0219169083600281111561068557610684612868565b5b021790555060a082015181600501559050507f1594903932ed8f9b9f2f2bbc15a18c132591e2c4d3730ba56705aa661662f49c84846040516106c8929190612e72565b60405180910390a150505050565b600160028111156106ea576106e9612868565b5b600160040160009054906101000a900460ff16600281111561070f5761070e612868565b5b1461074f576040517f08c379a000000000000000000000000000000000000000000000000000000000815260040161074690612ef5565b60405180910390fd5b6009600083815260200190815260200160002060009054906101000a900460ff16156107b0576040517f08c379a00000000000000000000000000000000000000000000000000000000081526004016107a790612f61565b60405180910390fd5b60016009600084815260200190815260200160002060006101000a81548160ff02191690831515021790555080827fec6b166704a1eb8dd0d21a49ab158c49beab74de0e845c19d7f796e5ccec466860405160405180910390a35050565b600281565b600c6020528060005260406000206000915090505481565b60008054906101000a900473ffffffffffffffffffffffffffffffffffffffff1673ffffffffffffffffffffffffffffffffffffffff163373ffffffffffffffffffffffffffffffffffffffff16146108b9576040517f08c379a00000000000000000000000000000000000000000000000000000000081526004016108b090612b74565b60405180910390fd5b6000801b600a5414610900576040517f08c379a00000000000000000000000000000000000000000000000000000000081526004016108f790612fcd565b60405180910390fd5b80600a819055507f441c2ef1cd25577b68ad08339ad40de8de2cb75d820352e6ad04872e67fb51cd8160405161093691906129a6565b60405180910390a150565b601060009054906101000a900473ffffffffffffffffffffffffffffffffffffffff1673ffffffffffffffffffffffffffffffffffffffff163373ffffffffffffffffffffffffffffffffffffffff16146109d1576040517f08c379a00000000000000000000000000000000000000000000000000000000081526004016109c890613039565b60405180910390fd5b818190508484905014610a19576040517f08c379a0000000000000000000000000000000000000000000000000000000008152600401610a10906130a5565b60405180910390fd5b60005b84849050811015610ab057600181610a3491906130f4565b7f3f43c5f7b17d028526089f9ba4ba863ef2a26802b48f4f85012a3ec93d4bbcd9868684818110610a6857610a67613128565b5b905060400201858585818110610a8157610a80613128565b5b905060400201604051610a95929190613170565b60405180910390a28080610aa890613199565b915050610a1c565b5050505050565b60096020528060005260406000206000915054906101000a900460ff1681565b601060009054906101000a900473ffffffffffffffffffffffffffffffffffffffff1681565b600d5481565b6000600b60003373ffffffffffffffffffffffffffffffffffffffff1673ffffffffffffffffffffffffffffffffffffffff16815260200190815260200160002060009054906101000a900460ff16610b91576040517f08c379a0000000000000000000000000000000000000000000000000000000008152600401610b889061322d565b60405180910390fd5b6000610cb3866002806020026040519081016040528092919082600260200280828437600081840152601f19601f82011690508083019250505050505086600280602002604051908101604052809291906000905b82821015610c3a578382604002016002806020026040519081016040528092919082600260200280828437600081840152601f19601f82011690508083019250505050505081526020019060010190610be6565b50505050866002806020026040519081016040528092919082600260200280828437600081840152601f19601f820116905080830192505050505050866001806020026040519081016040528092919082600160200280828437600081840152601f19601f820116905080830192505050505050612057565b90508015610d5b576001600e60003373ffffffffffffffffffffffffffffffffffffffff1673ffffffffffffffffffffffffffffffffffffffff16815260200190815260200160002060006101000a81548160ff0219169083151502179055503373ffffffffffffffffffffffffffffffffffffffff167f461f94abfffacf370cd3915fe79cceea6ccd2356cae317fbb3f7f3bae81cfea060405160405180910390a2610d93565b7f927295f72e08d9a5955fd9b158ac28cc0a9bc6c057c7171bbca9161241849ea733604051610d8a9190612645565b60405180910390a15b80915050949350505050565b6000600780549050905090565b60078181548110610dbc57600080fd5b9060005260206000209060030201600091509050806000015490806001018054610de590612bc3565b80601f0160208091040260200160405190810160405280929190818152602001828054610e1190612bc3565b8015610e5e5780601f10610e3357610100808354040283529160200191610e5e565b820191906000526020600020905b815481529060010190602001808311610e4157829003601f168201915b5050505050908060020154905083565b60008054906101000a900473ffffffffffffffffffffffffffffffffffffffff1673ffffffffffffffffffffffffffffffffffffffff163373ffffffffffffffffffffffffffffffffffffffff1614610efc576040517f08c379a0000000000000000000000000000000000000000000000000000000008152600401610ef390612b74565b60405180910390fd5b6000600d5414610f41576040517f08c379a0000000000000000000000000000000000000000000000000000000008152600401610f3890613299565b60405180910390fd5b60005b60038110156110ba576001600b6000848460038110610f6657610f65613128565b5b602002016020810190610f7991906124c5565b73ffffffffffffffffffffffffffffffffffffffff1673ffffffffffffffffffffffffffffffffffffffff16815260200190815260200160002060006101000a81548160ff021916908315150217905550600181610fd791906130f4565b600c6000848460038110610fee57610fed613128565b5b60200201602081019061100191906124c5565b73ffffffffffffffffffffffffffffffffffffffff1673ffffffffffffffffffffffffffffffffffffffff1681526020019081526020016000208190555081816003811061105257611051613128565b5b60200201602081019061106591906124c5565b73ffffffffffffffffffffffffffffffffffffffff167f85778b4fc65f26951d8cf0de370d55669440118927711dbc86de5ab3904def3160405160405180910390a280806110b290613199565b915050610f44565b5050565b60018060000180546110cf90612bc3565b80601f01602080910402602001604051908101604052809291908181526020018280546110fb90612bc3565b80156111485780601f1061111d57610100808354040283529160200191611148565b820191906000526020600020905b81548152906001019060200180831161112b57829003601f168201915b50505050509080600101805461115d90612bc3565b80601f016020809104026020016040519081016040528092919081815260200182805461118990612bc3565b80156111d65780601f106111ab576101008083540402835291602001916111d6565b820191906000526020600020905b8154815290600101906020018083116111b957829003601f168201915b5050505050908060020154908060030154908060040160009054906101000a900460ff16908060050154905086565b6000611632565b7f30644e72e131a029b85045b68181585d2833e84879b9709143e1f593f0000001811061123d576000805260206000f35b50565b600060405183815284602082015285604082015260408160608360076107d05a03fa915081611273576000805260206000f35b825160408201526020830151606082015260408360808360066107d05a03fa9150816112a3576000805260206000f35b505050505050565b600060808601600087017f2d2bbd05032830e38fbe5b92d97d5308b19d59e04f5a9e3e0b12bfe5781cc41481527f0b6b27a36c650fe495f8e8a74b606e629fbb57ca954fe920cf9793f093fed3f6602082015261134e60008801357f1edd51c662e1c077b99b381d14dbf3a0e0883bd1365f716f15a7fde476d6e1357f0612ebacc2a0f75422c59901603b7063c5862071cb50f9361dbf16b239f9b83784611240565b833582527f30644e72e131a029b85045b68181585d97816a916871ca8d3c208c16d87cfd4760208501357f30644e72e131a029b85045b68181585d97816a916871ca8d3c208c16d87cfd4703066020830152843560408301526020850135606083015260408501356080830152606085013560a08301527f0fa97dbe05c01604f78e309ff166a3d1ca5a169ad7e4c273978b2d12951b3aa860c08301527f1ce3d36ac75c22ca880a3589453dd56d74ebcd3dc0d02bbd68b34d5d7950ca2960e08301527f08854137860062e4ae212836201a5afcfe3f37123650b07b4ccbbe81528d77b16101008301527f061483df5d4504f9f4c4d0db42fc7ff28dca2e621cedbddef0fc1517ba3608686101208301527f234436eb026880fecd883256f20c9bf04145e8d2851134db03fb0750a0eaae3a6101408301527f0477051796d060fccce2dcb65437ad24c044e0ead79119f3eb26f1ac3ce97b7b610160830152600088015161018083015260206000018801516101a08301527f198e9393920d483a7260bfb731fb5d25f1aa493335a9e71297e485b7aef312c26101c08301527f1800deef121f1e76426a00665e5c4479674322d4f75edadd46debd5cd992f6ed6101e08301527f090689d0585ff075ec9e99ad690c3395bc4b313370b38ef355acdadcd122975b6102008301527f12c85ea5db8c6deb4aab71808dcb408fe3d1e7690c43d37b4ce6cc0166fa7daa610220830152853561024083015260208601356102608301527f198e9393920d483a7260bfb731fb5d25f1aa493335a9e71297e485b7aef312c26102808301527f1800deef121f1e76426a00665e5c4479674322d4f75edadd46debd5cd992f6ed6102a08301527f090689d0585ff075ec9e99ad690c3395bc4b313370b38ef355acdadcd122975b6102c08301527f12c85ea5db8c6deb4aab71808dcb408fe3d1e7690c43d37b4ce6cc0166fa7daa6102e08301526020826103008460086107d05a03fa82518116935050505095945050505050565b604051610380810160405261164a600084013561120c565b611657818486888a6112ab565b8060005260206000f35b60008054906101000a900473ffffffffffffffffffffffffffffffffffffffff1673ffffffffffffffffffffffffffffffffffffffff163373ffffffffffffffffffffffffffffffffffffffff16146116ef576040517f08c379a00000000000000000000000000000000000000000000000000000000081526004016116e690612b74565b60405180910390fd5b60076040518060600160405280600160078054905061170e91906130f4565b8152602001838152602001600081525090806001815401808255809150506001900390600052602060002090600302016000909190919091506000820151816000015560208201518160010190816117669190612da0565b506040820151816002015550507fe83b2a43e7e82d975c8a0a6d2f045153c869e111136a34d1889ab7b598e396a3600780549050826040516117a99291906132b9565b60405180910390a150565b60008054906101000a900473ffffffffffffffffffffffffffffffffffffffff1673ffffffffffffffffffffffffffffffffffffffff163373ffffffffffffffffffffffffffffffffffffffff1614611842576040517f08c379a000000000000000000000000000000000000000000000000000000000815260040161183990612b74565b60405180910390fd5b6001600281111561185657611855612868565b5b600160040160009054906101000a900460ff16600281111561187b5761187a612868565b5b146118bb576040517f08c379a00000000000000000000000000000000000000000000000000000000081526004016118b290613335565b60405180910390fd5b6002600160040160006101000a81548160ff021916908360028111156118e4576118e3612868565b5b02179055507f66ec723071e4bb646f7b35d31bc2dee8510979bd8c180edd0690d4f5e802f1e460405160405180910390a1565b600a5481565b60008054906101000a900473ffffffffffffffffffffffffffffffffffffffff1673ffffffffffffffffffffffffffffffffffffffff163373ffffffffffffffffffffffffffffffffffffffff16146119ab576040517f08c379a00000000000000000000000000000000000000000000000000000000081526004016119a290612b74565b60405180910390fd5b806001600501819055507f90004c04698bc3322499a575ed3752dd4abf33e0a7294c06a787a0fe01bea941816040516119e491906129a6565b60405180910390a150565b600f6020528060005260406000206000915054906101000a900460ff1681565b60088054611a1c90612bc3565b80601f0160208091040260200160405190810160405280929190818152602001828054611a4890612bc3565b8015611a955780601f10611a6a57610100808354040283529160200191611a95565b820191906000526020600020905b815481529060010190602001808311611a7857829003601f168201915b505050505081565b60008054906101000a900473ffffffffffffffffffffffffffffffffffffffff1673ffffffffffffffffffffffffffffffffffffffff163373ffffffffffffffffffffffffffffffffffffffff1614611b2b576040517f08c379a0000000000000000000000000000000000000000000000000000000008152600401611b2290612b74565b60405180910390fd5b818160089182611b3c9291906133bb565b507fcbe11c4a798e6399d2bdc5014d77dd62a510f9a2d3e8d17fa579793168e7b2198282604051611b6e9291906134b8565b60405180910390a15050565b600b6020528060005260406000206000915054906101000a900460ff1681565b600b60003373ffffffffffffffffffffffffffffffffffffffff1673ffffffffffffffffffffffffffffffffffffffff16815260200190815260200160002060009054906101000a900460ff16611c26576040517f08c379a0000000000000000000000000000000000000000000000000000000008152600401611c1d9061322d565b60405180910390fd5b600e60003373ffffffffffffffffffffffffffffffffffffffff1673ffffffffffffffffffffffffffffffffffffffff16815260200190815260200160002060009054906101000a900460ff16611cb2576040517f08c379a0000000000000000000000000000000000000000000000000000000008152600401611ca990613528565b60405180910390fd5b600f60003373ffffffffffffffffffffffffffffffffffffffff1673ffffffffffffffffffffffffffffffffffffffff16815260200190815260200160002060009054906101000a900460ff1615611d3f576040517f08c379a0000000000000000000000000000000000000000000000000000000008152600401611d3690612fcd565b60405180910390fd5b60008282905011611d85576040517f08c379a0000000000000000000000000000000000000000000000000000000008152600401611d7c90613594565b60405180910390fd5b6001600f60003373ffffffffffffffffffffffffffffffffffffffff1673ffffffffffffffffffffffffffffffffffffffff16815260200190815260200160002060006101000a81548160ff0219169083151502179055506000600e60003373ffffffffffffffffffffffffffffffffffffffff1673ffffffffffffffffffffffffffffffffffffffff16815260200190815260200160002060006101000a81548160ff021916908315150217905550600d600081548092919060010191905055503373ffffffffffffffffffffffffffffffffffffffff167f84ed87109962c02c163a4cb962b99e44550d6d3e65b0539743f436be6f38a41b8383604051611e8f92919061366c565b60405180910390a26002600d5410611ece577fb5c83c1854b3926d397eff3a576d47f9d1ef613af9b5d8e34fb1f6641428230660405160405180910390a15b5050565b600e6020528060005260406000206000915054906101000a900460ff1681565b60008054906101000a900473ffffffffffffffffffffffffffffffffffffffff1681565b60008054906101000a900473ffffffffffffffffffffffffffffffffffffffff1673ffffffffffffffffffffffffffffffffffffffff163373ffffffffffffffffffffffffffffffffffffffff1614611fa4576040517f08c379a0000000000000000000000000000000000000000000000000000000008152600401611f9b90612b74565b60405180910390fd5b600073ffffffffffffffffffffffffffffffffffffffff168173ffffffffffffffffffffffffffffffffffffffff1603612013576040517f08c379a000000000000000000000000000000000000000000000000000000000815260040161200a906136dc565b60405180910390fd5b80601060006101000a81548173ffffffffffffffffffffffffffffffffffffffff021916908373ffffffffffffffffffffffffffffffffffffffff16021790555050565b60008060003073ffffffffffffffffffffffffffffffffffffffff168787878760405160240161208a9493929190613929565b6040516020818303038152906040527f43753b4d000000000000000000000000000000000000000000000000000000007bffffffffffffffffffffffffffffffffffffffffffffffffffffffff19166020820180517bffffffffffffffffffffffffffffffffffffffffffffffffffffffff838183161783525050505060405161211491906139ac565b600060405180830381855afa9150503d806000811461214f576040519150601f19603f3d011682016040523d82523d6000602084013e612154565b606091505b5091509150811580612167575060208151105b1561217757600092505050612190565b8080602001905181019061218b91906139ef565b925050505b949350505050565b6000604051905090565b600080fd5b600080fd5b600080fd5b600080fd5b6000601f19601f8301169050919050565b7f4e487b7100000000000000000000000000000000000000000000000000000000600052604160045260246000fd5b6121ff826121b6565b810181811067ffffffffffffffff8211171561221e5761221d6121c7565b5b80604052505050565b6000612231612198565b905061223d82826121f6565b919050565b600067ffffffffffffffff82111561225d5761225c6121c7565b5b612266826121b6565b9050602081019050919050565b82818337600083830152505050565b600061229561229084612242565b612227565b9050828152602081018484840111156122b1576122b06121b1565b5b6122bc848285612273565b509392505050565b600082601f8301126122d9576122d86121ac565b5b81356122e9848260208601612282565b91505092915050565b6000819050919050565b612305816122f2565b811461231057600080fd5b50565b600081359050612322816122fc565b92915050565b60008060008060808587031215612342576123416121a2565b5b600085013567ffffffffffffffff8111156123605761235f6121a7565b5b61236c878288016122c4565b945050602085013567ffffffffffffffff81111561238d5761238c6121a7565b5b612399878288016122c4565b93505060406123aa87828801612313565b92505060606123bb87828801612313565b91505092959194509250565b6000819050919050565b6123da816123c7565b81146123e557600080fd5b50565b6000813590506123f7816123d1565b92915050565b60008060408385031215612414576124136121a2565b5b6000612422858286016123e8565b9250506020612433858286016123e8565b9150509250929050565b612446816122f2565b82525050565b6000602082019050612461600083018461243d565b92915050565b600073ffffffffffffffffffffffffffffffffffffffff82169050919050565b600061249282612467565b9050919050565b6124a281612487565b81146124ad57600080fd5b50565b6000813590506124bf81612499565b92915050565b6000602082840312156124db576124da6121a2565b5b60006124e9848285016124b0565b91505092915050565b600060208284031215612508576125076121a2565b5b6000612516848285016123e8565b91505092915050565b600080fd5b600080fd5b60008083601f84011261253f5761253e6121ac565b5b8235905067ffffffffffffffff81111561255c5761255b61251f565b5b60208301915083604082028301111561257857612577612524565b5b9250929050565b60008060008060408587031215612599576125986121a2565b5b600085013567ffffffffffffffff8111156125b7576125b66121a7565b5b6125c387828801612529565b9450945050602085013567ffffffffffffffff8111156125e6576125e56121a7565b5b6125f287828801612529565b925092505092959194509250565b60008115159050919050565b61261581612600565b82525050565b6000602082019050612630600083018461260c565b92915050565b61263f81612487565b82525050565b600060208201905061265a6000830184612636565b92915050565b60008190508260206002028201111561267c5761267b612524565b5b92915050565b60008190508260406002028201111561269e5761269d612524565b5b92915050565b6000819050826020600102820111156126c0576126bf612524565b5b92915050565b60008060008061012085870312156126e1576126e06121a2565b5b60006126ef87828801612660565b945050604061270087828801612682565b93505060c061271187828801612660565b925050610100612723878288016126a4565b91505092959194509250565b600060208284031215612745576127446121a2565b5b600061275384828501612313565b91505092915050565b600081519050919050565b600082825260208201905092915050565b60005b8381101561279657808201518184015260208101905061277b565b60008484015250505050565b60006127ad8261275c565b6127b78185612767565b93506127c7818560208601612778565b6127d0816121b6565b840191505092915050565b60006060820190506127f0600083018661243d565b818103602083015261280281856127a2565b9050612811604083018461243d565b949350505050565b60008190508260206003028201111561283557612834612524565b5b92915050565b600060608284031215612851576128506121a2565b5b600061285f84828501612819565b91505092915050565b7f4e487b7100000000000000000000000000000000000000000000000000000000600052602160045260246000fd5b600381106128a8576128a7612868565b5b50565b60008190506128b982612897565b919050565b60006128c9826128ab565b9050919050565b6128d9816128be565b82525050565b6128e8816123c7565b82525050565b600060c082019050818103600083015261290881896127a2565b9050818103602083015261291c81886127a2565b905061292b604083018761243d565b612938606083018661243d565b61294560808301856128d0565b61295260a08301846128df565b979650505050505050565b600060208284031215612973576129726121a2565b5b600082013567ffffffffffffffff811115612991576129906121a7565b5b61299d848285016122c4565b91505092915050565b60006020820190506129bb60008301846128df565b92915050565b600081519050919050565b600082825260208201905092915050565b60006129e8826129c1565b6129f281856129cc565b9350612a02818560208601612778565b612a0b816121b6565b840191505092915050565b60006020820190508181036000830152612a3081846129dd565b905092915050565b60008083601f840112612a4e57612a4d6121ac565b5b8235905067ffffffffffffffff811115612a6b57612a6a61251f565b5b602083019150836001820283011115612a8757612a86612524565b5b9250929050565b60008060208385031215612aa557612aa46121a2565b5b600083013567ffffffffffffffff811115612ac357612ac26121a7565b5b612acf85828601612a38565b92509250509250929050565b60008060208385031215612af257612af16121a2565b5b600083013567ffffffffffffffff811115612b1057612b0f6121a7565b5b612b1c85828601612529565b92509250509250929050565b7f4e6f7420617574686f72697a6564000000000000000000000000000000000000600082015250565b6000612b5e600e83612767565b9150612b6982612b28565b602082019050919050565b60006020820190508181036000830152612b8d81612b51565b9050919050565b7f4e487b7100000000000000000000000000000000000000000000000000000000600052602260045260246000fd5b60006002820490506001821680612bdb57607f821691505b602082108103612bee57612bed612b94565b5b50919050565b60008190508160005260206000209050919050565b60006020601f8301049050919050565b600082821b905092915050565b600060088302612c567fffffffffffffffffffffffffffffffffffffffffffffffffffffffffffffffff82612c19565b612c608683612c19565b95508019841693508086168417925050509392505050565b6000819050919050565b6000612c9d612c98612c93846122f2565b612c78565b6122f2565b9050919050565b6000819050919050565b612cb783612c82565b612ccb612cc382612ca4565b848454612c26565b825550505050565b600090565b612ce0612cd3565b612ceb818484612cae565b505050565b5b81811015612d0f57612d04600082612cd8565b600181019050612cf1565b5050565b601f821115612d5457612d2581612bf4565b612d2e84612c09565b81016020851015612d3d578190505b612d51612d4985612c09565b830182612cf0565b50505b505050565b600082821c905092915050565b6000612d7760001984600802612d59565b1980831691505092915050565b6000612d908383612d66565b9150826002028217905092915050565b612da98261275c565b67ffffffffffffffff811115612dc257612dc16121c7565b5b612dcc8254612bc3565b612dd7828285612d13565b600060209050601f831160018114612e0a5760008415612df8578287015190505b612e028582612d84565b865550612e6a565b601f198416612e1886612bf4565b60005b82811015612e4057848901518255600182019150602085019450602081019050612e1b565b86831015612e5d5784890151612e59601f891682612d66565b8355505b6001600288020188555050505b505050505050565b60006040820190508181036000830152612e8c81856127a2565b90508181036020830152612ea081846127a2565b90509392505050565b7f456c656374696f6e206e6f742061637469766500000000000000000000000000600082015250565b6000612edf601383612767565b9150612eea82612ea9565b602082019050919050565b60006020820190508181036000830152612f0e81612ed2565b9050919050565b7f446f75626c6520766f7465206465746563746564000000000000000000000000600082015250565b6000612f4b601483612767565b9150612f5682612f15565b602082019050919050565b60006020820190508181036000830152612f7a81612f3e565b9050919050565b7f416c7265616479207075626c6973686564000000000000000000000000000000600082015250565b6000612fb7601183612767565b9150612fc282612f81565b602082019050919050565b60006020820190508181036000830152612fe681612faa565b9050919050565b7f4e6f7420617574686f72697a6564202861676772656761746f72206f6e6c7929600082015250565b6000613023602083612767565b915061302e82612fed565b602082019050919050565b6000602082019050818103600083015261305281613016565b9050919050565b7f4c656e677468206d69736d617463680000000000000000000000000000000000600082015250565b600061308f600f83612767565b915061309a82613059565b602082019050919050565b600060208201905081810360008301526130be81613082565b9050919050565b7f4e487b7100000000000000000000000000000000000000000000000000000000600052601160045260246000fd5b60006130ff826122f2565b915061310a836122f2565b9250828201905080821115613122576131216130c5565b5b92915050565b7f4e487b7100000000000000000000000000000000000000000000000000000000600052603260045260246000fd5b82818337505050565b61316c60408383613157565b5050565b60006080820190506131856000830185613160565b6131926040830184613160565b9392505050565b60006131a4826122f2565b91507fffffffffffffffffffffffffffffffffffffffffffffffffffffffffffffffff82036131d6576131d56130c5565b5b600182019050919050565b7f4e6f742074727573746565000000000000000000000000000000000000000000600082015250565b6000613217600b83612767565b9150613222826131e1565b602082019050919050565b600060208201905081810360008301526132468161320a565b9050919050565b7f416c726561647920696e697469616c697a656400000000000000000000000000600082015250565b6000613283601383612767565b915061328e8261324d565b602082019050919050565b600060208201905081810360008301526132b281613276565b9050919050565b60006040820190506132ce600083018561243d565b81810360208301526132e081846127a2565b90509392505050565b7f4e6f742061637469766500000000000000000000000000000000000000000000600082015250565b600061331f600a83612767565b915061332a826132e9565b602082019050919050565b6000602082019050818103600083015261334e81613312565b9050919050565b600082905092915050565b60008190508160005260206000209050919050565b601f8211156133b65761338781613360565b61339084612c09565b8101602085101561339f578190505b6133b36133ab85612c09565b830182612cf0565b50505b505050565b6133c58383613355565b67ffffffffffffffff8111156133de576133dd6121c7565b5b6133e88254612bc3565b6133f3828285613375565b6000601f8311600181146134225760008415613410578287013590505b61341a8582612d84565b865550613482565b601f19841661343086613360565b60005b8281101561345857848901358255600182019150602085019450602081019050613433565b868310156134755784890135613471601f891682612d66565b8355505b6001600288020188555050505b50505050505050565b600061349783856129cc565b93506134a4838584612273565b6134ad836121b6565b840190509392505050565b600060208201905081810360008301526134d381848661348b565b90509392505050565b7f50726f6f66206e6f742076657269666965640000000000000000000000000000600082015250565b6000613512601283612767565b915061351d826134dc565b602082019050919050565b6000602082019050818103600083015261354181613505565b9050919050565b7f456d70747920445f706f696e7473000000000000000000000000000000000000600082015250565b600061357e600e83612767565b915061358982613548565b602082019050919050565b600060208201905081810360008301526135ad81613571565b9050919050565b600082825260208201905092915050565b6000819050919050565b6135db60408383613157565b5050565b60006135eb83836135cf565b60408301905092915050565b600082905092915050565b6000604082019050919050565b600061361b83856135b4565b9350613626826135c5565b8060005b8581101561365f5761363c82846135f7565b61364688826135df565b975061365183613602565b92505060018101905061362a565b5085925050509392505050565b6000602082019050818103600083015261368781848661360f565b90509392505050565b7f696e76616c69642061676772656761746f720000000000000000000000000000600082015250565b60006136c6601283612767565b91506136d182613690565b602082019050919050565b600060208201905081810360008301526136f5816136b9565b9050919050565b600060029050919050565b600081905092915050565b6000819050919050565b613725816122f2565b82525050565b6000613737838361371c565b60208301905092915050565b6000602082019050919050565b613759816136fc565b6137638184613707565b925061376e82613712565b8060005b8381101561379f578151613786878261372b565b965061379183613743565b925050600181019050613772565b505050505050565b600060029050919050565b600081905092915050565b6000819050919050565b600081905092915050565b6137db816136fc565b6137e581846137c7565b92506137f082613712565b8060005b83811015613821578151613808878261372b565b965061381383613743565b9250506001810190506137f4565b505050505050565b600061383583836137d2565b60408301905092915050565b6000602082019050919050565b613857816137a7565b61386181846137b2565b925061386c826137bd565b8060005b8381101561389d5781516138848782613829565b965061388f83613841565b925050600181019050613870565b505050505050565b600060019050919050565b600081905092915050565b6000819050919050565b6000602082019050919050565b6138db816138a5565b6138e581846138b0565b92506138f0826138bb565b8060005b83811015613921578151613908878261372b565b9650613913836138c5565b9250506001810190506138f4565b505050505050565b60006101208201905061393f6000830187613750565b61394c604083018661384e565b61395960c0830185613750565b6139676101008301846138d2565b95945050505050565b600081905092915050565b6000613986826129c1565b6139908185613970565b93506139a0818560208601612778565b80840191505092915050565b60006139b8828461397b565b915081905092915050565b6139cc81612600565b81146139d757600080fd5b50565b6000815190506139e9816139c3565b92915050565b600060208284031215613a0557613a046121a2565b5b6000613a13848285016139da565b9150509291505056fea2646970667358221220c444aa84b8934b9ffc09c5c27befa286110ab7efa31b77bac4b8f0be92691a6464736f6c63430008140033",
  "linkReferences": {},
  "deployedLinkReferences": {}
}